{
  "_format": "hh-sol-artifact-1",
  "contractName": "LeverageUSDCVault",
  "sourceName": "contracts/LeverageUSDCVault.sol",
  "abi": [
    {
      "inputs": [
        {
          "internalType": "contract ERC20",
          "name": "_asset",
          "type": "address"
        },
        {
          "internalType": "string",
          "name": "_name",
          "type": "string"
        },
        {
          "internalType": "string",
          "name": "_symbol",
          "type": "string"
        },
        {
          "internalType": "uint256",
          "name": "_criticalHealthfactor",
          "type": "uint256"
        }
      ],
      "stateMutability": "nonpayable",
      "type": "constructor"
    },
    {
      "anonymous": false,
      "inputs": [
        {
          "indexed": true,
          "internalType": "address",
          "name": "owner",
          "type": "address"
        },
        {
          "indexed": true,
          "internalType": "address",
          "name": "spender",
          "type": "address"
        },
        {
          "indexed": false,
          "internalType": "uint256",
          "name": "amount",
          "type": "uint256"
        }
      ],
      "name": "Approval",
      "type": "event"
    },
    {
      "anonymous": false,
      "inputs": [
        {
          "indexed": true,
          "internalType": "address",
          "name": "caller",
          "type": "address"
        },
        {
          "indexed": true,
          "internalType": "address",
          "name": "owner",
          "type": "address"
        },
        {
          "indexed": false,
          "internalType": "uint256",
          "name": "assets",
          "type": "uint256"
        },
        {
          "indexed": false,
          "internalType": "uint256",
          "name": "shares",
          "type": "uint256"
        }
      ],
      "name": "Deposit",
      "type": "event"
    },
    {
      "anonymous": false,
      "inputs": [
        {
          "indexed": true,
          "internalType": "address",
          "name": "from",
          "type": "address"
        },
        {
          "indexed": true,
          "internalType": "address",
          "name": "to",
          "type": "address"
        },
        {
          "indexed": false,
          "internalType": "uint256",
          "name": "amount",
          "type": "uint256"
        }
      ],
      "name": "Transfer",
      "type": "event"
    },
    {
      "anonymous": false,
      "inputs": [
        {
          "indexed": true,
          "internalType": "address",
          "name": "caller",
          "type": "address"
        },
        {
          "indexed": true,
          "internalType": "address",
          "name": "receiver",
          "type": "address"
        },
        {
          "indexed": true,
          "internalType": "address",
          "name": "owner",
          "type": "address"
        },
        {
          "indexed": false,
          "internalType": "uint256",
          "name": "assets",
          "type": "uint256"
        },
        {
          "indexed": false,
          "internalType": "uint256",
          "name": "shares",
          "type": "uint256"
        }
      ],
      "name": "Withdraw",
      "type": "event"
    },
    {
      "inputs": [],
      "name": "DOMAIN_SEPARATOR",
      "outputs": [
        {
          "internalType": "bytes32",
          "name": "",
          "type": "bytes32"
        }
      ],
      "stateMutability": "view",
      "type": "function"
    },
    {
      "inputs": [
        {
          "internalType": "address",
          "name": "",
          "type": "address"
        },
        {
          "internalType": "address",
          "name": "",
          "type": "address"
        }
      ],
      "name": "allowance",
      "outputs": [
        {
          "internalType": "uint256",
          "name": "",
          "type": "uint256"
        }
      ],
      "stateMutability": "view",
      "type": "function"
    },
    {
      "inputs": [
        {
          "internalType": "address",
          "name": "spender",
          "type": "address"
        },
        {
          "internalType": "uint256",
          "name": "amount",
          "type": "uint256"
        }
      ],
      "name": "approve",
      "outputs": [
        {
          "internalType": "bool",
          "name": "",
          "type": "bool"
        }
      ],
      "stateMutability": "nonpayable",
      "type": "function"
    },
    {
      "inputs": [],
      "name": "asset",
      "outputs": [
        {
          "internalType": "contract ERC20",
          "name": "",
          "type": "address"
        }
      ],
      "stateMutability": "view",
      "type": "function"
    },
    {
      "inputs": [
        {
          "internalType": "address",
          "name": "",
          "type": "address"
        }
      ],
      "name": "balanceOf",
      "outputs": [
        {
          "internalType": "uint256",
          "name": "",
          "type": "uint256"
        }
      ],
      "stateMutability": "view",
      "type": "function"
    },
    {
      "inputs": [
        {
          "internalType": "uint256",
          "name": "shares",
          "type": "uint256"
        }
      ],
      "name": "convertToAssets",
      "outputs": [
        {
          "internalType": "uint256",
          "name": "",
          "type": "uint256"
        }
      ],
      "stateMutability": "view",
      "type": "function"
    },
    {
      "inputs": [
        {
          "internalType": "uint256",
          "name": "assets",
          "type": "uint256"
        }
      ],
      "name": "convertToShares",
      "outputs": [
        {
          "internalType": "uint256",
          "name": "",
          "type": "uint256"
        }
      ],
      "stateMutability": "view",
      "type": "function"
    },
    {
      "inputs": [],
      "name": "creditAccount",
      "outputs": [
        {
          "internalType": "address",
          "name": "",
          "type": "address"
        }
      ],
      "stateMutability": "view",
      "type": "function"
    },
    {
      "inputs": [],
      "name": "creditFilter",
      "outputs": [
        {
          "internalType": "contract ICreditFilter",
          "name": "",
          "type": "address"
        }
      ],
      "stateMutability": "view",
      "type": "function"
    },
    {
      "inputs": [],
      "name": "creditManagerUSDC",
      "outputs": [
        {
          "internalType": "contract ICreditManager",
          "name": "",
          "type": "address"
        }
      ],
      "stateMutability": "view",
      "type": "function"
    },
    {
      "inputs": [],
      "name": "criticalHealthFactor",
      "outputs": [
        {
          "internalType": "uint256",
          "name": "",
          "type": "uint256"
        }
      ],
      "stateMutability": "view",
      "type": "function"
    },
    {
      "inputs": [],
      "name": "decimals",
      "outputs": [
        {
          "internalType": "uint8",
          "name": "",
          "type": "uint8"
        }
      ],
      "stateMutability": "view",
      "type": "function"
    },
    {
      "inputs": [],
      "name": "decreaseLeverage",
      "outputs": [],
      "stateMutability": "nonpayable",
      "type": "function"
    },
    {
      "inputs": [
        {
          "internalType": "uint256",
          "name": "assets",
          "type": "uint256"
        },
        {
          "internalType": "address",
          "name": "receiver",
          "type": "address"
        }
      ],
      "name": "deposit",
      "outputs": [
        {
          "internalType": "uint256",
          "name": "shares",
          "type": "uint256"
        }
      ],
      "stateMutability": "nonpayable",
      "type": "function"
    },
    {
      "inputs": [],
      "name": "levFactor",
      "outputs": [
        {
          "internalType": "uint256",
          "name": "",
          "type": "uint256"
        }
      ],
      "stateMutability": "view",
      "type": "function"
    },
    {
      "inputs": [
        {
          "internalType": "address",
          "name": "",
          "type": "address"
        }
      ],
      "name": "maxDeposit",
      "outputs": [
        {
          "internalType": "uint256",
          "name": "",
          "type": "uint256"
        }
      ],
      "stateMutability": "view",
      "type": "function"
    },
    {
      "inputs": [
        {
          "internalType": "address",
          "name": "",
          "type": "address"
        }
      ],
      "name": "maxMint",
      "outputs": [
        {
          "internalType": "uint256",
          "name": "",
          "type": "uint256"
        }
      ],
      "stateMutability": "view",
      "type": "function"
    },
    {
      "inputs": [
        {
          "internalType": "address",
          "name": "owner",
          "type": "address"
        }
      ],
      "name": "maxRedeem",
      "outputs": [
        {
          "internalType": "uint256",
          "name": "",
          "type": "uint256"
        }
      ],
      "stateMutability": "view",
      "type": "function"
    },
    {
      "inputs": [
        {
          "internalType": "address",
          "name": "owner",
          "type": "address"
        }
      ],
      "name": "maxWithdraw",
      "outputs": [
        {
          "internalType": "uint256",
          "name": "",
          "type": "uint256"
        }
      ],
      "stateMutability": "view",
      "type": "function"
    },
    {
      "inputs": [
        {
          "internalType": "uint256",
          "name": "shares",
          "type": "uint256"
        },
        {
          "internalType": "address",
          "name": "receiver",
          "type": "address"
        }
      ],
      "name": "mint",
      "outputs": [
        {
          "internalType": "uint256",
          "name": "assets",
          "type": "uint256"
        }
      ],
      "stateMutability": "nonpayable",
      "type": "function"
    },
    {
      "inputs": [],
      "name": "name",
      "outputs": [
        {
          "internalType": "string",
          "name": "",
          "type": "string"
        }
      ],
      "stateMutability": "view",
      "type": "function"
    },
    {
      "inputs": [
        {
          "internalType": "address",
          "name": "",
          "type": "address"
        }
      ],
      "name": "nonces",
      "outputs": [
        {
          "internalType": "uint256",
          "name": "",
          "type": "uint256"
        }
      ],
      "stateMutability": "view",
      "type": "function"
    },
    {
      "inputs": [],
      "name": "owner",
      "outputs": [
        {
          "internalType": "address",
          "name": "",
          "type": "address"
        }
      ],
      "stateMutability": "view",
      "type": "function"
    },
    {
      "inputs": [
        {
          "internalType": "address",
          "name": "owner",
          "type": "address"
        },
        {
          "internalType": "address",
          "name": "spender",
          "type": "address"
        },
        {
          "internalType": "uint256",
          "name": "value",
          "type": "uint256"
        },
        {
          "internalType": "uint256",
          "name": "deadline",
          "type": "uint256"
        },
        {
          "internalType": "uint8",
          "name": "v",
          "type": "uint8"
        },
        {
          "internalType": "bytes32",
          "name": "r",
          "type": "bytes32"
        },
        {
          "internalType": "bytes32",
          "name": "s",
          "type": "bytes32"
        }
      ],
      "name": "permit",
      "outputs": [],
      "stateMutability": "nonpayable",
      "type": "function"
    },
    {
      "inputs": [
        {
          "internalType": "uint256",
          "name": "assets",
          "type": "uint256"
        }
      ],
      "name": "previewDeposit",
      "outputs": [
        {
          "internalType": "uint256",
          "name": "",
          "type": "uint256"
        }
      ],
      "stateMutability": "view",
      "type": "function"
    },
    {
      "inputs": [
        {
          "internalType": "uint256",
          "name": "shares",
          "type": "uint256"
        }
      ],
      "name": "previewMint",
      "outputs": [
        {
          "internalType": "uint256",
          "name": "",
          "type": "uint256"
        }
      ],
      "stateMutability": "view",
      "type": "function"
    },
    {
      "inputs": [
        {
          "internalType": "uint256",
          "name": "shares",
          "type": "uint256"
        }
      ],
      "name": "previewRedeem",
      "outputs": [
        {
          "internalType": "uint256",
          "name": "",
          "type": "uint256"
        }
      ],
      "stateMutability": "view",
      "type": "function"
    },
    {
      "inputs": [
        {
          "internalType": "uint256",
          "name": "assets",
          "type": "uint256"
        }
      ],
      "name": "previewWithdraw",
      "outputs": [
        {
          "internalType": "uint256",
          "name": "",
          "type": "uint256"
        }
      ],
      "stateMutability": "view",
      "type": "function"
    },
    {
      "inputs": [
        {
          "internalType": "uint256",
          "name": "shares",
          "type": "uint256"
        },
        {
          "internalType": "address",
          "name": "receiver",
          "type": "address"
        },
        {
          "internalType": "address",
          "name": "owner",
          "type": "address"
        }
      ],
      "name": "redeem",
      "outputs": [
        {
          "internalType": "uint256",
          "name": "assets",
          "type": "uint256"
        }
      ],
      "stateMutability": "nonpayable",
      "type": "function"
    },
    {
      "inputs": [],
      "name": "symbol",
      "outputs": [
        {
          "internalType": "string",
          "name": "",
          "type": "string"
        }
      ],
      "stateMutability": "view",
      "type": "function"
    },
    {
      "inputs": [],
      "name": "totalAssets",
      "outputs": [
        {
          "internalType": "uint256",
          "name": "",
          "type": "uint256"
        }
      ],
      "stateMutability": "view",
      "type": "function"
    },
    {
      "inputs": [],
      "name": "totalSupply",
      "outputs": [
        {
          "internalType": "uint256",
          "name": "",
          "type": "uint256"
        }
      ],
      "stateMutability": "view",
      "type": "function"
    },
    {
      "inputs": [
        {
          "internalType": "address",
          "name": "to",
          "type": "address"
        },
        {
          "internalType": "uint256",
          "name": "amount",
          "type": "uint256"
        }
      ],
      "name": "transfer",
      "outputs": [
        {
          "internalType": "bool",
          "name": "",
          "type": "bool"
        }
      ],
      "stateMutability": "nonpayable",
      "type": "function"
    },
    {
      "inputs": [
        {
          "internalType": "address",
          "name": "from",
          "type": "address"
        },
        {
          "internalType": "address",
          "name": "to",
          "type": "address"
        },
        {
          "internalType": "uint256",
          "name": "amount",
          "type": "uint256"
        }
      ],
      "name": "transferFrom",
      "outputs": [
        {
          "internalType": "bool",
          "name": "",
          "type": "bool"
        }
      ],
      "stateMutability": "nonpayable",
      "type": "function"
    },
    {
      "inputs": [
        {
          "internalType": "uint256",
          "name": "assets",
          "type": "uint256"
        },
        {
          "internalType": "address",
          "name": "receiver",
          "type": "address"
        },
        {
          "internalType": "address",
          "name": "owner",
          "type": "address"
        }
      ],
      "name": "withdraw",
      "outputs": [
        {
          "internalType": "uint256",
          "name": "shares",
          "type": "uint256"
        }
      ],
      "stateMutability": "nonpayable",
      "type": "function"
    },
    {
      "inputs": [],
      "name": "yearnAdapter",
      "outputs": [
        {
          "internalType": "contract IYVault",
          "name": "",
          "type": "address"
        }
      ],
      "stateMutability": "view",
      "type": "function"
    }
  ],
  "bytecode": "0x610120604052600680546001600160a01b031990811690915560088054821673dbad1361d9a03b81be8d3a54ef0dc9e39a1ba5b31790557f7de5c945692858cef922dad3979a1b8bfa77a9b40000000000000000000000006101005260098054909116736f706028d7779223a51fa015f876364d7cfdd5ee17905561012c600a553480156200008d57600080fd5b50604051620026d5380380620026d5833981016040819052620000b091620003a5565b8383838181846001600160a01b031663313ce5676040518163ffffffff1660e01b815260040160206040518083038186803b158015620000ef57600080fd5b505afa15801562000104573d6000803e3d6000fd5b505050506040513d601f19601f820116820180604052508101906200012a919062000433565b82516200013f90600090602086019062000254565b5081516200015590600190602085019062000254565b507fff0000000000000000000000000000000000000000000000000000000000000060f882901b166080524660a0526200018e620001c7565b60c052505050505060601b6001600160601b03191660e05260078054336001600160a01b0319909116179055600b55506200058d915050565b60007f8b73c3c69bb8fe3d512ecc4cf759cc79239f7b179b0ffacaa9a75d522b39400f6000604051620001fb91906200045d565b6040519081900381206200023992917fc89efdaa54c0f20c7adf612882df0950f5a951637e0307cdcb4c672f298b8bc6904690309060200162000502565b60405160208183030381529060405280519060200120905090565b82805462000262906200053a565b90600052602060002090601f016020900481019282620002865760008555620002d1565b82601f10620002a157805160ff1916838001178555620002d1565b82800160010185558215620002d1579182015b82811115620002d1578251825591602001919060010190620002b4565b50620002df929150620002e3565b5090565b5b80821115620002df5760008155600101620002e4565b600082601f8301126200030b578081fd5b81516001600160401b038082111562000328576200032862000577565b6040516020601f8401601f191682018101838111838210171562000350576200035062000577565b604052838252858401810187101562000367578485fd5b8492505b838310156200038a57858301810151828401820152918201916200036b565b838311156200039b57848185840101525b5095945050505050565b60008060008060808587031215620003bb578384fd5b84516001600160a01b0381168114620003d2578485fd5b60208601519094506001600160401b0380821115620003ef578485fd5b620003fd88838901620002fa565b9450604087015191508082111562000413578384fd5b506200042287828801620002fa565b606096909601519497939650505050565b60006020828403121562000445578081fd5b815160ff8116811462000456578182fd5b9392505050565b81546000908190600281046001808316806200047a57607f831692505b60208084108214156200049b57634e487b7160e01b87526022600452602487fd5b818015620004b25760018114620004c457620004f4565b60ff19861689528489019650620004f4565b620004cf8a6200052e565b885b86811015620004ec5781548b820152908501908301620004d1565b505084890196505b509498975050505050505050565b9485526020850193909352604084019190915260608301526001600160a01b0316608082015260a00190565b60009081526020902090565b6002810460018216806200054f57607f821691505b602082108114156200057157634e487b7160e01b600052602260045260246000fd5b50919050565b634e487b7160e01b600052604160045260246000fd5b60805160f81c60a05160c05160e05160601c6101005160601c6120a66200062f6000396000818161085701528181610bdf0152818161145501526115ae0152600081816107e20152818161097d01528181610a6b01528181610b4701528181610d7701528181610eae015281816112b101528181611378015281816116c3015261175c015260006107bb015260006107870152600061076101526120a66000f3fe608060405234801561001057600080fd5b506004361061021c5760003560e01c80637ecebe0011610125578063c63d75b6116100ad578063d905777e1161007c578063d905777e14610418578063dd62ed3e1461042b578063ef8b30f71461043e578063f93f515b14610451578063fededa64146104595761021c565b8063c63d75b6146102e7578063c6e6f592146103df578063ce96cb77146103f2578063d505accf146104055761021c565b80639b6a80a7116100f45780639b6a80a71461038b578063a9059cbb14610393578063b3d7f6b9146103a6578063b460af94146103b9578063ba087652146103cc5761021c565b80637ecebe00146103555780638da5cb5b1461036857806394bf804d1461037057806395d89b41146103835761021c565b806338d52e0f116101a85780636bf7cca0116101775780636bf7cca0146103175780636d0a12181461031f5780636e553f651461032757806370a082311461033a5780637e0910551461034d5761021c565b806338d52e0f146102d2578063402d267d146102e757806344bd98ec146102fa5780634cdad506146103045761021c565b80630a28a477116101ef5780630a28a4771461028757806318160ddd1461029a57806323b872dd146102a2578063313ce567146102b55780633644e515146102ca5761021c565b806301e1d1141461022157806306fdde031461023f57806307a2d13a14610254578063095ea7b314610267575b600080fd5b610229610461565b6040516102369190611d0c565b60405180910390f35b610247610531565b6040516102369190611d93565b610229610262366004611b65565b6105bf565b61027a610275366004611b1a565b6105ee565b6040516102369190611d01565b610229610295366004611b65565b610659565b610229610679565b61027a6102b0366004611a65565b61067f565b6102bd61075f565b6040516102369190611f5f565b610229610783565b6102da6107e0565b6040516102369190611cb0565b6102296102f53660046119f5565b610804565b61030261080b565b005b610229610312366004611b65565b610a0b565b6102da610a16565b6102da610a25565b610229610335366004611b95565b610a34565b6102296103483660046119f5565b610af4565b610229610b06565b6102296103633660046119f5565b610b0c565b6102da610b1e565b61022961037e366004611b95565b610b2d565b610247610bd0565b6102da610bdd565b61027a6103a1366004611b1a565b610c01565b6102296103b4366004611b65565b610c65565b6102296103c7366004611bb9565b610c84565b6102296103da366004611bb9565b610d9e565b6102296103ed366004611b65565b610ed5565b6102296104003660046119f5565b610ef5565b610302610413366004611aa5565b610f17565b6102296104263660046119f5565b6110e1565b610229610439366004611a2d565b6110fc565b61022961044c366004611b65565b611119565b6102da611124565b610229611133565b6006546000906001600160a01b031661047c5750600161052e565b6009546006546040516363ef1c5360e11b81526000926001600160a01b039081169263c7de38a6926104b49290911690600401611cb0565b60206040518083038186803b1580156104cc57600080fd5b505afa1580156104e0573d6000803e3d6000fd5b505050506040513d601f19601f820116820180604052508101906105049190611b7d565b9050600a5460646105159190611f79565b610520826064611fb1565b61052a9190611f91565b9150505b90565b6000805461053e90611fe7565b80601f016020809104026020016040519081016040528092919081815260200182805461056a90611fe7565b80156105b75780601f1061058c576101008083540402835291602001916105b7565b820191906000526020600020905b81548152906001019060200180831161059a57829003601f168201915b505050505081565b60025460009080156105e3576105de6105d6610461565b849083611139565b6105e5565b825b9150505b919050565b3360008181526004602090815260408083206001600160a01b038716808552925280832085905551919290917f8c5be1e5ebec7d5bd14f71427d1e84f3dd0314c0f7b2291e5b200ac8c7c3b92590610647908690611d0c565b60405180910390a35060015b92915050565b60025460009080156105e3576105de81610671610461565b859190611158565b60025481565b6001600160a01b038316600090815260046020908152604080832033845290915281205460001981146106db576106b68382611fd0565b6001600160a01b03861660009081526004602090815260408083203384529091529020555b6001600160a01b03851660009081526003602052604081208054859290610703908490611fd0565b90915550506001600160a01b03808516600081815260036020526040908190208054870190555190918716906000805160206120518339815191529061074a908790611d0c565b60405180910390a360019150505b9392505050565b7f000000000000000000000000000000000000000000000000000000000000000081565b60007f000000000000000000000000000000000000000000000000000000000000000046146107b9576107b4611186565b6107db565b7f00000000000000000000000000000000000000000000000000000000000000005b905090565b7f000000000000000000000000000000000000000000000000000000000000000081565b5060001990565b336000908152600360205260409020546108405760405162461bcd60e51b815260040161083790611de6565b60405180910390fd5b600b5461084b61120f565b1061085557600080fd5b7f00000000000000000000000000000000000000000000000000000000000000006001600160a01b0316633ccfd60b6040518163ffffffff1660e01b8152600401602060405180830381600087803b1580156108b057600080fd5b505af11580156108c4573d6000803e3d6000fd5b505050506040513d601f19601f820116820180604052508101906108e89190611b7d565b5060085460405163d692ba3360e01b81526001600160a01b039091169063d692ba3390610919903090600401611cb0565b600060405180830381600087803b15801561093357600080fd5b505af1158015610947573d6000803e3d6000fd5b50505050600a80600082825461095d9190611fd0565b90915550506040516370a0823160e01b8152610a09906001600160a01b037f000000000000000000000000000000000000000000000000000000000000000016906370a08231906109b2903090600401611cb0565b60206040518083038186803b1580156109ca57600080fd5b505afa1580156109de573d6000803e3d6000fd5b505050506040513d601f19601f82011682018060405250810190610a029190611b7d565b6000611297565b565b6000610653826105bf565b6008546001600160a01b031681565b6006546001600160a01b031681565b6000610a3f83611119565b905080610a5e5760405162461bcd60e51b815260040161083790611e2d565b610a936001600160a01b037f0000000000000000000000000000000000000000000000000000000000000000163330866114eb565b610a9d828261154e565b816001600160a01b0316336001600160a01b03167fdcbc1c05240f31ff3ad067ef1ee35ce4997762752e3a095284754544f4c709d78584604051610ae2929190611f51565b60405180910390a36106538382611297565b60036020526000908152604090205481565b600a5481565b60056020526000908152604090205481565b6007546001600160a01b031681565b6000610b3883610c65565b9050610b6f6001600160a01b037f0000000000000000000000000000000000000000000000000000000000000000163330846114eb565b610b79828461154e565b816001600160a01b0316336001600160a01b03167fdcbc1c05240f31ff3ad067ef1ee35ce4997762752e3a095284754544f4c709d78386604051610bbe929190611f51565b60405180910390a36106538184611297565b6001805461053e90611fe7565b7f000000000000000000000000000000000000000000000000000000000000000081565b33600090815260036020526040812080548391908390610c22908490611fd0565b90915550506001600160a01b0383166000818152600360205260409081902080548501905551339060008051602061205183398151915290610647908690611d0c565b60025460009080156105e3576105de610c7c610461565b849083611158565b6000610c8f84610659565b9050336001600160a01b03831614610cff576001600160a01b03821660009081526004602090815260408083203384529091529020546000198114610cfd57610cd88282611fd0565b6001600160a01b03841660009081526004602090815260408083203384529091529020555b505b610d0984826115ac565b610d13828261180a565b816001600160a01b0316836001600160a01b0316336001600160a01b03167ffbde797d201c681b91056529119e0b02407c7bb96a4a2c75c01fc9667232c8db8785604051610d62929190611f51565b60405180910390a46107586001600160a01b037f000000000000000000000000000000000000000000000000000000000000000016848661186c565b6000336001600160a01b03831614610e0e576001600160a01b03821660009081526004602090815260408083203384529091529020546000198114610e0c57610de78582611fd0565b6001600160a01b03841660009081526004602090815260408083203384529091529020555b505b610e1784610a0b565b905080610e365760405162461bcd60e51b815260040161083790611ed1565b610e4081856115ac565b610e4a828561180a565b816001600160a01b0316836001600160a01b0316336001600160a01b03167ffbde797d201c681b91056529119e0b02407c7bb96a4a2c75c01fc9667232c8db8488604051610e99929190611f51565b60405180910390a46107586001600160a01b037f000000000000000000000000000000000000000000000000000000000000000016848361186c565b60025460009080156105e3576105de81610eed610461565b859190611139565b6001600160a01b038116600090815260036020526040812054610653906105bf565b42841015610f375760405162461bcd60e51b815260040161083790611ef6565b60006001610f43610783565b6001600160a01b038a166000908152600560209081526040918290208054600181019091559151610fa0927f6e71edae12b1b97f4d1f60370fef10105fa2faae0126114a169c64845d6126c9928e928e928e9290918e9101611d15565b60405160208183030381529060405280519060200120604051602001610fc7929190611c95565b6040516020818303038152906040528051906020012085858560405160008152602001604052604051610ffd9493929190611d75565b6020604051602081039080840390855afa15801561101f573d6000803e3d6000fd5b5050604051601f1901519150506001600160a01b038116158015906110555750876001600160a01b0316816001600160a01b0316145b6110715760405162461bcd60e51b815260040161083790611ea9565b6001600160a01b0390811660009081526004602090815260408083208a8516808552925291829020889055905190918916907f8c5be1e5ebec7d5bd14f71427d1e84f3dd0314c0f7b2291e5b200ac8c7c3b925906110d0908990611d0c565b60405180910390a350505050505050565b6001600160a01b031660009081526003602052604090205490565b600460209081526000928352604080842090915290825290205481565b600061065382610ed5565b6009546001600160a01b031681565b600b5481565b82820281151584158583048514171661115157600080fd5b0492915050565b82820281151584158583048514171661117057600080fd5b6001826001830304018115150290509392505050565b60007f8b73c3c69bb8fe3d512ecc4cf759cc79239f7b179b0ffacaa9a75d522b39400f60006040516111b89190611bfa565b6040519081900381206111f492917fc89efdaa54c0f20c7adf612882df0950f5a951637e0307cdcb4c672f298b8bc69046903090602001611d49565b60405160208183030381529060405280519060200120905090565b60095460065460405163dfd5946560e01b81526000926001600160a01b039081169263dfd59465926112479290911690600401611cb0565b60206040518083038186803b15801561125f57600080fd5b505afa158015611273573d6000803e3d6000fd5b505050506040513d601f19601f820116820180604052508101906107db9190611b7d565b60085460405163095ea7b360e01b81526001600160a01b037f000000000000000000000000000000000000000000000000000000000000000081169263095ea7b3926112ee92919091169060001990600401611ce8565b602060405180830381600087803b15801561130857600080fd5b505af115801561131c573d6000803e3d6000fd5b505050506040513d601f19601f820116820180604052508101906113409190611b45565b5061134a826118c8565b6114535760085460405163165e040d60e21b81526001600160a01b03909116906359781034906113a29030907f0000000000000000000000000000000000000000000000000000000000000000908790600401611cc4565b600060405180830381600087803b1580156113bc57600080fd5b505af11580156113d0573d6000803e3d6000fd5b5050600854600a546001600160a01b039091169250639efc60d091506064906113fa908690611fb1565b6114049190611f91565b6040518263ffffffff1660e01b81526004016114209190611d0c565b600060405180830381600087803b15801561143a57600080fd5b505af115801561144e573d6000803e3d6000fd5b505050505b7f00000000000000000000000000000000000000000000000000000000000000006001600160a01b031663d0e30db06040518163ffffffff1660e01b8152600401602060405180830381600087803b1580156114ae57600080fd5b505af11580156114c2573d6000803e3d6000fd5b505050506040513d601f19601f820116820180604052508101906114e69190611b7d565b505050565b60006040516323b872dd60e01b81528460048201528360248201528260448201526020600060648360008a5af13d15601f3d11600160005114161716915050806115475760405162461bcd60e51b815260040161083790611e52565b5050505050565b80600260008282546115609190611f79565b90915550506001600160a01b03821660008181526003602052604080822080548501905551600080516020612051833981519152906115a0908590611d0c565b60405180910390a35050565b7f00000000000000000000000000000000000000000000000000000000000000006001600160a01b0316633ccfd60b6040518163ffffffff1660e01b8152600401602060405180830381600087803b15801561160757600080fd5b505af115801561161b573d6000803e3d6000fd5b505050506040513d601f19601f8201168201806040525081019061163f9190611b7d565b5060085460405163d692ba3360e01b81526001600160a01b039091169063d692ba3390611670903090600401611cb0565b600060405180830381600087803b15801561168a57600080fd5b505af115801561169e573d6000803e3d6000fd5b5050600680546001600160a01b031916905550506040516370a0823160e01b815282907f00000000000000000000000000000000000000000000000000000000000000006001600160a01b0316906370a0823190611700903090600401611cb0565b60206040518083038186803b15801561171857600080fd5b505afa15801561172c573d6000803e3d6000fd5b505050506040513d601f19601f820116820180604052508101906117509190611b7d565b111561180657611806827f00000000000000000000000000000000000000000000000000000000000000006001600160a01b03166370a08231306040518263ffffffff1660e01b81526004016117a69190611cb0565b60206040518083038186803b1580156117be57600080fd5b505afa1580156117d2573d6000803e3d6000fd5b505050506040513d601f19601f820116820180604052508101906117f69190611b7d565b6118009190611fd0565b82611297565b5050565b6001600160a01b03821660009081526003602052604081208054839290611832908490611fd0565b90915550506002805482900390556040516000906001600160a01b03841690600080516020612051833981519152906115a0908590611d0c565b600060405163a9059cbb60e01b8152836004820152826024820152602060006044836000895af13d15601f3d11600160005114161716915050806118c25760405162461bcd60e51b815260040161083790611e80565b50505050565b6006546000906001600160a01b03166119ed57600854600a54604051635288ba4b60e01b81526001600160a01b0390921691635288ba4b916119139186913091600090600401611f2d565b600060405180830381600087803b15801561192d57600080fd5b505af1158015611941573d6000803e3d6000fd5b505060085460405163055ee9b560e01b81526001600160a01b03909116925063055ee9b59150611975903090600401611cb0565b60206040518083038186803b15801561198d57600080fd5b505afa1580156119a1573d6000803e3d6000fd5b505050506040513d601f19601f820116820180604052508101906119c59190611a11565b600680546001600160a01b0319166001600160a01b03929092169190911790555060016105e9565b5060006105e9565b600060208284031215611a06578081fd5b813561075881612038565b600060208284031215611a22578081fd5b815161075881612038565b60008060408385031215611a3f578081fd5b8235611a4a81612038565b91506020830135611a5a81612038565b809150509250929050565b600080600060608486031215611a79578081fd5b8335611a8481612038565b92506020840135611a9481612038565b929592945050506040919091013590565b600080600080600080600060e0888a031215611abf578283fd5b8735611aca81612038565b96506020880135611ada81612038565b95506040880135945060608801359350608088013560ff81168114611afd578384fd5b9699959850939692959460a0840135945060c09093013592915050565b60008060408385031215611b2c578182fd5b8235611b3781612038565b946020939093013593505050565b600060208284031215611b56578081fd5b81518015158114610758578182fd5b600060208284031215611b76578081fd5b5035919050565b600060208284031215611b8e578081fd5b5051919050565b60008060408385031215611ba7578182fd5b823591506020830135611a5a81612038565b600080600060608486031215611bcd578283fd5b833592506020840135611bdf81612038565b91506040840135611bef81612038565b809150509250925092565b8154600090819060028104600180831680611c1657607f831692505b6020808410821415611c3657634e487b7160e01b87526022600452602487fd5b818015611c4a5760018114611c5b57611c87565b60ff19861689528489019650611c87565b611c648a611f6d565b885b86811015611c7f5781548b820152908501908301611c66565b505084890196505b509498975050505050505050565b61190160f01b81526002810192909252602282015260420190565b6001600160a01b0391909116815260200190565b6001600160a01b039384168152919092166020820152604081019190915260600190565b6001600160a01b03929092168252602082015260400190565b901515815260200190565b90815260200190565b9586526001600160a01b0394851660208701529290931660408501526060840152608083019190915260a082015260c00190565b9485526020850193909352604084019190915260608301526001600160a01b0316608082015260a00190565b93845260ff9290921660208401526040830152606082015260800190565b6000602080835283518082850152825b81811015611dbf57858101830151858201604001528201611da3565b81811115611dd05783604083870101525b50601f01601f1916929092016040019392505050565b60208082526027908201527f4f6e6c79205368617265686f6c6465722063616e2063616c6c207468697320666040820152663ab731ba34b7b760c91b606082015260800190565b6020808252600b908201526a5a45524f5f53484152455360a81b604082015260600190565b6020808252601490820152731514905394d1915497d19493d357d1905253115160621b604082015260600190565b6020808252600f908201526e1514905394d1915497d19052531151608a1b604082015260600190565b6020808252600e908201526d24a72b20a624a22fa9a4a3a722a960911b604082015260600190565b6020808252600b908201526a5a45524f5f41535345545360a81b604082015260600190565b60208082526017908201527f5045524d49545f444541444c494e455f45585049524544000000000000000000604082015260600190565b9384526001600160a01b039290921660208401526040830152606082015260800190565b918252602082015260400190565b60ff91909116815260200190565b60009081526020902090565b60008219821115611f8c57611f8c612022565b500190565b600082611fac57634e487b7160e01b81526012600452602481fd5b500490565b6000816000190483118215151615611fcb57611fcb612022565b500290565b600082821015611fe257611fe2612022565b500390565b600281046001821680611ffb57607f821691505b6020821081141561201c57634e487b7160e01b600052602260045260246000fd5b50919050565b634e487b7160e01b600052601160045260246000fd5b6001600160a01b038116811461204d57600080fd5b5056feddf252ad1be2c89b69c2b068fc378daa952ba7f163c4a11628f55a4df523b3efa26469706673582212202efc8625f5db1ed79ff146f94ba6b878a5271cf85a0ed5e2dd198e9f4c06dc4a64736f6c63430008000033",
  "linkReferences": {},
  "deployedLinkReferences": {}
}